{
  "_format": "hh-sol-artifact-1",
  "contractName": "Orphans",
  "sourceName": "contracts/Orphans.sol",
  "abi": [
    {
      "inputs": [
        {
          "internalType": "uint256",
          "name": "_target",
          "type": "uint256"
        },
        {
          "internalType": "uint256",
          "name": "_deadline",
          "type": "uint256"
        }
      ],
      "stateMutability": "nonpayable",
      "type": "constructor"
    },
    {
      "inputs": [
        {
          "internalType": "address",
          "name": "",
          "type": "address"
        }
      ],
      "name": "contributors",
      "outputs": [
        {
          "internalType": "uint256",
          "name": "",
          "type": "uint256"
        }
      ],
      "stateMutability": "view",
      "type": "function"
    },
    {
      "inputs": [
        {
          "internalType": "string",
          "name": "_description",
          "type": "string"
        },
        {
          "internalType": "address payable",
          "name": "_recipient",
          "type": "address"
        },
        {
          "internalType": "uint256",
          "name": "_value",
          "type": "uint256"
        }
      ],
      "name": "createRequests",
      "outputs": [],
      "stateMutability": "nonpayable",
      "type": "function"
    },
    {
      "inputs": [],
      "name": "deadline",
      "outputs": [
        {
          "internalType": "uint256",
          "name": "",
          "type": "uint256"
        }
      ],
      "stateMutability": "view",
      "type": "function"
    },
    {
      "inputs": [],
      "name": "getContractBalance",
      "outputs": [
        {
          "internalType": "uint256",
          "name": "",
          "type": "uint256"
        }
      ],
      "stateMutability": "view",
      "type": "function"
    },
    {
      "inputs": [
        {
          "internalType": "uint256",
          "name": "_requestNo",
          "type": "uint256"
        }
      ],
      "name": "makePayment",
      "outputs": [],
      "stateMutability": "nonpayable",
      "type": "function"
    },
    {
      "inputs": [],
      "name": "manager",
      "outputs": [
        {
          "internalType": "address",
          "name": "",
          "type": "address"
        }
      ],
      "stateMutability": "view",
      "type": "function"
    },
    {
      "inputs": [],
      "name": "minimumContribution",
      "outputs": [
        {
          "internalType": "uint256",
          "name": "",
          "type": "uint256"
        }
      ],
      "stateMutability": "view",
      "type": "function"
    },
    {
      "inputs": [],
      "name": "noOfContributors",
      "outputs": [
        {
          "internalType": "uint256",
          "name": "",
          "type": "uint256"
        }
      ],
      "stateMutability": "view",
      "type": "function"
    },
    {
      "inputs": [],
      "name": "numRequests",
      "outputs": [
        {
          "internalType": "uint256",
          "name": "",
          "type": "uint256"
        }
      ],
      "stateMutability": "view",
      "type": "function"
    },
    {
      "inputs": [],
      "name": "raisedAmount",
      "outputs": [
        {
          "internalType": "uint256",
          "name": "",
          "type": "uint256"
        }
      ],
      "stateMutability": "view",
      "type": "function"
    },
    {
      "inputs": [],
      "name": "refund",
      "outputs": [],
      "stateMutability": "nonpayable",
      "type": "function"
    },
    {
      "inputs": [
        {
          "internalType": "uint256",
          "name": "",
          "type": "uint256"
        }
      ],
      "name": "requests",
      "outputs": [
        {
          "internalType": "string",
          "name": "description",
          "type": "string"
        },
        {
          "internalType": "address payable",
          "name": "recipient",
          "type": "address"
        },
        {
          "internalType": "uint256",
          "name": "value",
          "type": "uint256"
        },
        {
          "internalType": "bool",
          "name": "completed",
          "type": "bool"
        },
        {
          "internalType": "uint256",
          "name": "noOfVoters",
          "type": "uint256"
        }
      ],
      "stateMutability": "view",
      "type": "function"
    },
    {
      "inputs": [],
      "name": "sendEth",
      "outputs": [],
      "stateMutability": "payable",
      "type": "function"
    },
    {
      "inputs": [],
      "name": "target",
      "outputs": [
        {
          "internalType": "uint256",
          "name": "",
          "type": "uint256"
        }
      ],
      "stateMutability": "view",
      "type": "function"
    },
    {
      "inputs": [
        {
          "internalType": "uint256",
          "name": "_requestNo",
          "type": "uint256"
        }
      ],
      "name": "voteRequest",
      "outputs": [],
      "stateMutability": "nonpayable",
      "type": "function"
    }
  ],
  "bytecode": "0x60806040523480156200001157600080fd5b50604051620017b4380380620017b48339818101604052810190620000379190620000ba565b8160048190555080426200004c9190620000fb565b600381905550606460028190555033600160006101000a81548173ffffffffffffffffffffffffffffffffffffffff021916908373ffffffffffffffffffffffffffffffffffffffff1602179055505050620001ab565b600081519050620000b48162000191565b92915050565b60008060408385031215620000ce57600080fd5b6000620000de85828601620000a3565b9250506020620000f185828601620000a3565b9150509250929050565b6000620001088262000158565b9150620001158362000158565b9250827fffffffffffffffffffffffffffffffffffffffffffffffffffffffffffffffff038211156200014d576200014c62000162565b5b828201905092915050565b6000819050919050565b7f4e487b7100000000000000000000000000000000000000000000000000000000600052601160045260246000fd5b6200019c8162000158565b8114620001a857600080fd5b50565b6115f980620001bb6000396000f3fe6080604052600436106100e85760003560e01c80635114cb521161008a578063937e09b111610059578063937e09b1146102b35780639fb42b1f146102de578063c59ee1dc14610309578063d4b8399214610334576100e8565b80635114cb5214610207578063590e1ae3146102305780636f9fb98a1461024757806381d12c5814610272576100e8565b80633eb7647b116100c65780633eb7647b1461015f578063481c6a75146101885780634cb6f4a5146101b35780634e260f6f146101dc576100e8565b806306e99fef146100ed5780631f6d4942146100f757806329dcb0cf14610134575b600080fd5b6100f561035f565b005b34801561010357600080fd5b5061011e60048036038101906101199190610db2565b6104b8565b60405161012b919061127b565b60405180910390f35b34801561014057600080fd5b506101496104d0565b604051610156919061127b565b60405180910390f35b34801561016b57600080fd5b5061018660048036038101906101819190610ddb565b6104d6565b005b34801561019457600080fd5b5061019d610629565b6040516101aa9190611106565b60405180910390f35b3480156101bf57600080fd5b506101da60048036038101906101d59190610e42565b61064f565b005b3480156101e857600080fd5b506101f16107f4565b6040516101fe919061127b565b60405180910390f35b34801561021357600080fd5b5061022e60048036038101906102299190610e42565b6107fa565b005b34801561023c57600080fd5b506102456109ee565b005b34801561025357600080fd5b5061025c610b5d565b604051610269919061127b565b60405180910390f35b34801561027e57600080fd5b5061029960048036038101906102949190610e42565b610b65565b6040516102aa959493929190611121565b60405180910390f35b3480156102bf57600080fd5b506102c8610c50565b6040516102d5919061127b565b60405180910390f35b3480156102ea57600080fd5b506102f3610c56565b604051610300919061127b565b60405180910390f35b34801561031557600080fd5b5061031e610c5c565b60405161032b919061127b565b60405180910390f35b34801561034057600080fd5b50610349610c62565b604051610356919061127b565b60405180910390f35b60035442106103a3576040517f08c379a000000000000000000000000000000000000000000000000000000000815260040161039a906111db565b60405180910390fd5b6002543410156103e8576040517f08c379a00000000000000000000000000000000000000000000000000000000081526004016103df9061119b565b60405180910390fd5b60008060003373ffffffffffffffffffffffffffffffffffffffff1673ffffffffffffffffffffffffffffffffffffffff168152602001908152602001600020541415610448576006600081548092919061044290611468565b91905055505b346000803373ffffffffffffffffffffffffffffffffffffffff1673ffffffffffffffffffffffffffffffffffffffff16815260200190815260200160002060008282546104969190611313565b9250508190555034600560008282546104af9190611313565b92505081905550565b60006020528060005260406000206000915090505481565b60035481565b600160009054906101000a900473ffffffffffffffffffffffffffffffffffffffff1673ffffffffffffffffffffffffffffffffffffffff163373ffffffffffffffffffffffffffffffffffffffff1614610566576040517f08c379a000000000000000000000000000000000000000000000000000000000815260040161055d9061117b565b60405180910390fd5b600060076000600854815260200190815260200160002090506008600081548092919061059290611468565b9190505550838160000190805190602001906105af929190610c68565b50828160010160006101000a81548173ffffffffffffffffffffffffffffffffffffffff021916908373ffffffffffffffffffffffffffffffffffffffff16021790555081816002018190555060008160030160006101000a81548160ff0219169083151502179055506000816004018190555050505050565b600160009054906101000a900473ffffffffffffffffffffffffffffffffffffffff1681565b60008060003373ffffffffffffffffffffffffffffffffffffffff1673ffffffffffffffffffffffffffffffffffffffff16815260200190815260200160002054116106d0576040517f08c379a00000000000000000000000000000000000000000000000000000000081526004016106c7906111bb565b60405180910390fd5b6000600760008381526020019081526020016000209050600015158160050160003373ffffffffffffffffffffffffffffffffffffffff1673ffffffffffffffffffffffffffffffffffffffff16815260200190815260200160002060009054906101000a900460ff1615151461077c576040517f08c379a00000000000000000000000000000000000000000000000000000000081526004016107739061125b565b60405180910390fd5b60018160050160003373ffffffffffffffffffffffffffffffffffffffff1673ffffffffffffffffffffffffffffffffffffffff16815260200190815260200160002060006101000a81548160ff0219169083151502179055508060040160008154809291906107eb90611468565b91905055505050565b60065481565b600160009054906101000a900473ffffffffffffffffffffffffffffffffffffffff1673ffffffffffffffffffffffffffffffffffffffff163373ffffffffffffffffffffffffffffffffffffffff161461088a576040517f08c379a00000000000000000000000000000000000000000000000000000000081526004016108819061117b565b60405180910390fd5b600454600554101561089b57600080fd5b6000600760008381526020019081526020016000209050600015158160030160009054906101000a900460ff1615151461090a576040517f08c379a0000000000000000000000000000000000000000000000000000000008152600401610901906111fb565b60405180910390fd5b60026006546109199190611369565b81600401541161095e576040517f08c379a00000000000000000000000000000000000000000000000000000000081526004016109559061123b565b60405180910390fd5b8060010160009054906101000a900473ffffffffffffffffffffffffffffffffffffffff1673ffffffffffffffffffffffffffffffffffffffff166108fc82600201549081150290604051600060405180830381858888f193505050501580156109cc573d6000803e3d6000fd5b5060018160030160006101000a81548160ff0219169083151502179055505050565b60035442118015610a025750600454600554105b610a41576040517f08c379a0000000000000000000000000000000000000000000000000000000008152600401610a389061121b565b60405180910390fd5b60008060003373ffffffffffffffffffffffffffffffffffffffff1673ffffffffffffffffffffffffffffffffffffffff1681526020019081526020016000205411610a8c57600080fd5b60003390508073ffffffffffffffffffffffffffffffffffffffff166108fc6000803373ffffffffffffffffffffffffffffffffffffffff1673ffffffffffffffffffffffffffffffffffffffff168152602001908152602001600020549081150290604051600060405180830381858888f19350505050158015610b15573d6000803e3d6000fd5b5060008060003373ffffffffffffffffffffffffffffffffffffffff1673ffffffffffffffffffffffffffffffffffffffff1681526020019081526020016000208190555050565b600047905090565b6007602052806000526040600020600091509050806000018054610b8890611436565b80601f0160208091040260200160405190810160405280929190818152602001828054610bb490611436565b8015610c015780601f10610bd657610100808354040283529160200191610c01565b820191906000526020600020905b815481529060010190602001808311610be457829003601f168201915b5050505050908060010160009054906101000a900473ffffffffffffffffffffffffffffffffffffffff16908060020154908060030160009054906101000a900460ff16908060040154905085565b60025481565b60085481565b60055481565b60045481565b828054610c7490611436565b90600052602060002090601f016020900481019282610c965760008555610cdd565b82601f10610caf57805160ff1916838001178555610cdd565b82800160010185558215610cdd579182015b82811115610cdc578251825591602001919060010190610cc1565b5b509050610cea9190610cee565b5090565b5b80821115610d07576000816000905550600101610cef565b5090565b6000610d1e610d19846112c7565b611296565b905082815260208101848484011115610d3657600080fd5b610d418482856113f4565b509392505050565b600081359050610d588161157e565b92915050565b600081359050610d6d81611595565b92915050565b600082601f830112610d8457600080fd5b8135610d94848260208601610d0b565b91505092915050565b600081359050610dac816115ac565b92915050565b600060208284031215610dc457600080fd5b6000610dd284828501610d49565b91505092915050565b600080600060608486031215610df057600080fd5b600084013567ffffffffffffffff811115610e0a57600080fd5b610e1686828701610d73565b9350506020610e2786828701610d5e565b9250506040610e3886828701610d9d565b9150509250925092565b600060208284031215610e5457600080fd5b6000610e6284828501610d9d565b91505092915050565b610e74816113ac565b82525050565b610e838161139a565b82525050565b610e92816113be565b82525050565b6000610ea3826112f7565b610ead8185611302565b9350610ebd818560208601611403565b610ec68161156d565b840191505092915050565b6000610ede602483611302565b91507f4f6e6c79206d616e616765722063616e2063616c6c6c20746869732066756e6360008301527f74696f6e000000000000000000000000000000000000000000000000000000006020830152604082019050919050565b6000610f44601f83611302565b91507f4d696e696d756d20436f6e747269627574696f6e206973206e6f74206d6574006000830152602082019050919050565b6000610f84601783611302565b91507f594f75206d75737420626520636f6e7472696275746f720000000000000000006000830152602082019050919050565b6000610fc4601383611302565b91507f446561646c696e652068617320706173736564000000000000000000000000006000830152602082019050919050565b6000611004601e83611302565b91507f546865207265717565737420686173206265656e20636f6d706c6574656400006000830152602082019050919050565b6000611044601f83611302565b91507f596f7520617265206e6f7420656c696769626c6520666f7220726566756e64006000830152602082019050919050565b6000611084601983611302565b91507f4d616a6f7269747920646f6573206e6f7420737570706f7274000000000000006000830152602082019050919050565b60006110c4601683611302565b91507f596f75206861766520616c726561647920766f746564000000000000000000006000830152602082019050919050565b611100816113ea565b82525050565b600060208201905061111b6000830184610e7a565b92915050565b600060a082019050818103600083015261113b8188610e98565b905061114a6020830187610e6b565b61115760408301866110f7565b6111646060830185610e89565b61117160808301846110f7565b9695505050505050565b6000602082019050818103600083015261119481610ed1565b9050919050565b600060208201905081810360008301526111b481610f37565b9050919050565b600060208201905081810360008301526111d481610f77565b9050919050565b600060208201905081810360008301526111f481610fb7565b9050919050565b6000602082019050818103600083015261121481610ff7565b9050919050565b6000602082019050818103600083015261123481611037565b9050919050565b6000602082019050818103600083015261125481611077565b9050919050565b60006020820190508181036000830152611274816110b7565b9050919050565b600060208201905061129060008301846110f7565b92915050565b6000604051905081810181811067ffffffffffffffff821117156112bd576112bc61153e565b5b8060405250919050565b600067ffffffffffffffff8211156112e2576112e161153e565b5b601f19601f8301169050602081019050919050565b600081519050919050565b600082825260208201905092915050565b600061131e826113ea565b9150611329836113ea565b9250827fffffffffffffffffffffffffffffffffffffffffffffffffffffffffffffffff0382111561135e5761135d6114b1565b5b828201905092915050565b6000611374826113ea565b915061137f836113ea565b92508261138f5761138e6114e0565b5b828204905092915050565b60006113a5826113ca565b9050919050565b60006113b7826113ca565b9050919050565b60008115159050919050565b600073ffffffffffffffffffffffffffffffffffffffff82169050919050565b6000819050919050565b82818337600083830152505050565b60005b83811015611421578082015181840152602081019050611406565b83811115611430576000848401525b50505050565b6000600282049050600182168061144e57607f821691505b602082108114156114625761146161150f565b5b50919050565b6000611473826113ea565b91507fffffffffffffffffffffffffffffffffffffffffffffffffffffffffffffffff8214156114a6576114a56114b1565b5b600182019050919050565b7f4e487b7100000000000000000000000000000000000000000000000000000000600052601160045260246000fd5b7f4e487b7100000000000000000000000000000000000000000000000000000000600052601260045260246000fd5b7f4e487b7100000000000000000000000000000000000000000000000000000000600052602260045260246000fd5b7f4e487b7100000000000000000000000000000000000000000000000000000000600052604160045260246000fd5b6000601f19601f8301169050919050565b6115878161139a565b811461159257600080fd5b50565b61159e816113ac565b81146115a957600080fd5b50565b6115b5816113ea565b81146115c057600080fd5b5056fea2646970667358221220310e555ca822b0261c73a59d405f22e3365e806e2c8de2b26a434b2d7213ec5c64736f6c63430008000033",
  "linkReferences": {},
  "deployedLinkReferences": {}
}